{
  "contractName": "AccountabilityCheckerFactory",
  "abi": [
    {
      "inputs": [
        {
          "internalType": "address",
          "name": "deployed_contract",
          "type": "address"
        }
      ],
      "stateMutability": "nonpayable",
      "type": "constructor"
    },
    {
      "anonymous": false,
      "inputs": [
        {
          "indexed": false,
          "internalType": "address",
          "name": "",
          "type": "address"
        }
      ],
      "name": "log",
      "type": "event"
    },
    {
      "anonymous": false,
      "inputs": [
        {
          "indexed": false,
          "internalType": "address",
          "name": "contract_address",
          "type": "address"
        }
      ],
      "name": "newContractCreated",
      "type": "event"
    },
    {
      "inputs": [],
      "name": "contracts_deployed",
      "outputs": [
        {
          "internalType": "uint256",
          "name": "",
          "type": "uint256"
        }
      ],
      "stateMutability": "view",
      "type": "function",
      "constant": true
    },
    {
      "inputs": [],
      "name": "owner",
      "outputs": [
        {
          "internalType": "address",
          "name": "",
          "type": "address"
        }
      ],
      "stateMutability": "view",
      "type": "function",
      "constant": true
    },
    {
      "inputs": [],
      "name": "createContract",
      "outputs": [],
      "stateMutability": "nonpayable",
      "type": "function"
    },
    {
      "inputs": [],
      "name": "findMyContracts",
      "outputs": [
        {
          "internalType": "address[]",
          "name": "",
          "type": "address[]"
        }
      ],
      "stateMutability": "view",
      "type": "function",
      "constant": true
    }
  ],
  "bytecode": "0x60a060405234801561001057600080fd5b5060405161080c38038061080c83398181016040528101906100329190610110565b8073ffffffffffffffffffffffffffffffffffffffff1660808173ffffffffffffffffffffffffffffffffffffffff168152505033600160006101000a81548173ffffffffffffffffffffffffffffffffffffffff021916908373ffffffffffffffffffffffffffffffffffffffff1602179055505061013d565b600080fd5b600073ffffffffffffffffffffffffffffffffffffffff82169050919050565b60006100dd826100b2565b9050919050565b6100ed816100d2565b81146100f857600080fd5b50565b60008151905061010a816100e4565b92915050565b600060208284031215610126576101256100ad565b5b6000610134848285016100fb565b91505092915050565b6080516106b4610158600039600061018701526106b46000f3fe608060405234801561001057600080fd5b506004361061004c5760003560e01c8063208c7bf614610051578063412a5a6d1461006f578063573868f2146100795780638da5cb5b14610097575b600080fd5b6100596100b5565b60405161006691906104fc565b60405180910390f35b610077610180565b005b61008161030b565b60405161008e9190610537565b60405180910390f35b61009f610311565b6040516100ac9190610561565b60405180910390f35b6060600260003373ffffffffffffffffffffffffffffffffffffffff1673ffffffffffffffffffffffffffffffffffffffff16815260200190815260200160002080548060200260200160405190810160405280929190818152602001828054801561017657602002820191906000526020600020905b8160009054906101000a900473ffffffffffffffffffffffffffffffffffffffff1673ffffffffffffffffffffffffffffffffffffffff168152602001906001019080831161012c575b5050505050905090565b60006101ab7f0000000000000000000000000000000000000000000000000000000000000000610337565b90508073ffffffffffffffffffffffffffffffffffffffff1663c4d66de8336040518263ffffffff1660e01b81526004016101e69190610561565b600060405180830381600087803b15801561020057600080fd5b505af1158015610214573d6000803e3d6000fd5b50505050600260003373ffffffffffffffffffffffffffffffffffffffff1673ffffffffffffffffffffffffffffffffffffffff168152602001908152602001600020819080600181540180825580915050600190039060005260206000200160009091909190916101000a81548173ffffffffffffffffffffffffffffffffffffffff021916908373ffffffffffffffffffffffffffffffffffffffff16021790555060016000808282546102ca91906105ab565b925050819055507fe064354b7327796ade862d1f352f3cd5ca9c320ee58ce5606bf3e6d184c0b212816040516103009190610561565b60405180910390a150565b60005481565b600160009054906101000a900473ffffffffffffffffffffffffffffffffffffffff1681565b60006040517f3d602d80600a3d3981f3363d3d373d3d3d363d7300000000000000000000000081528260601b60148201527f5af43d82803e903d91602b57fd5bf3000000000000000000000000000000000060288201526037816000f0915050600073ffffffffffffffffffffffffffffffffffffffff168173ffffffffffffffffffffffffffffffffffffffff161415610407576040517f08c379a00000000000000000000000000000000000000000000000000000000081526004016103fe9061065e565b60405180910390fd5b919050565b600081519050919050565b600082825260208201905092915050565b6000819050602082019050919050565b600073ffffffffffffffffffffffffffffffffffffffff82169050919050565b600061046382610438565b9050919050565b61047381610458565b82525050565b6000610485838361046a565b60208301905092915050565b6000602082019050919050565b60006104a98261040c565b6104b38185610417565b93506104be83610428565b8060005b838110156104ef5781516104d68882610479565b97506104e183610491565b9250506001810190506104c2565b5085935050505092915050565b60006020820190508181036000830152610516818461049e565b905092915050565b6000819050919050565b6105318161051e565b82525050565b600060208201905061054c6000830184610528565b92915050565b61055b81610458565b82525050565b60006020820190506105766000830184610552565b92915050565b7f4e487b7100000000000000000000000000000000000000000000000000000000600052601160045260246000fd5b60006105b68261051e565b91506105c18361051e565b9250827fffffffffffffffffffffffffffffffffffffffffffffffffffffffffffffffff038211156105f6576105f561057c565b5b828201905092915050565b600082825260208201905092915050565b7f455243313136373a20637265617465206661696c656400000000000000000000600082015250565b6000610648601683610601565b915061065382610612565b602082019050919050565b600060208201905081810360008301526106778161063b565b905091905056fea2646970667358221220dea40f21256dc0e94bc1a2be2efe4734759ffc38525c0159f1aea8df2fc3646b64736f6c634300080b0033",
  "immutableReferences": {
    "1083": [
      {
        "length": 32,
        "start": 391
      }
    ]
  },
  "source": "// SPDX-License-Identifier: MIT\npragma solidity ^0.8.0;\nimport \"@openzeppelin/contracts-upgradeable/proxy/ClonesUpgradeable.sol\";\nimport \"./AccountabilityChecker.sol\";\n\ncontract AccountabilityCheckerFactory {\n    uint256 public contracts_deployed;\n    address immutable accountability_checker_contract;\n    address public owner;\n    mapping(address => address[]) private user_deployed_contracts;\n\n    event newContractCreated(address contract_address);\n\n    event log(address);\n\n    constructor(address deployed_contract) {\n        accountability_checker_contract = deployed_contract;\n        owner = msg.sender;\n    }\n\n    function createContract() external {\n        address cloneContract = ClonesUpgradeable.clone(\n            accountability_checker_contract\n        );\n        AccountabilityChecker(cloneContract).initialize(msg.sender);\n\n        (user_deployed_contracts[msg.sender]).push(cloneContract);\n        contracts_deployed += 1;\n        emit newContractCreated(cloneContract);\n    }\n\n    function findMyContracts() external view returns (address[] memory) {\n        return (user_deployed_contracts[msg.sender]);\n    }\n}\n",
  "sourcePath": "/Users/michelles/Desktop/Projects/Blockchain Course/blockchain-developer-bootcamp-final-project/smartcontract/contracts/AccountabilityCheckerFactory.sol",
  "compiler": {
    "name": "solc",
    "version": "0.8.11+commit.d7f03943.Emscripten.clang"
  },
  "schemaVersion": "3.4.4",
  "updatedAt": "2022-01-26T01:58:27.475Z",
  "networkType": "ethereum",
  "devdoc": {
    "kind": "dev",
    "methods": {},
    "version": 1
  },
  "userdoc": {
    "kind": "user",
    "methods": {},
    "version": 1
  }
}