{
  "contractName": "AccountabilityChecker",
  "abi": [
    {
      "anonymous": false,
      "inputs": [
        {
          "indexed": false,
          "internalType": "uint256",
          "name": "payout",
          "type": "uint256"
        },
        {
          "indexed": false,
          "internalType": "uint256",
          "name": "penalty",
          "type": "uint256"
        },
        {
          "indexed": false,
          "internalType": "bool",
          "name": "sentToOwner",
          "type": "bool"
        },
        {
          "indexed": false,
          "internalType": "bool",
          "name": "sentToNominee",
          "type": "bool"
        },
        {
          "indexed": false,
          "internalType": "bool",
          "name": "isPromiseActive",
          "type": "bool"
        }
      ],
      "name": "cashOutSummary",
      "type": "event"
    },
    {
      "anonymous": false,
      "inputs": [
        {
          "indexed": false,
          "internalType": "uint256",
          "name": "check_open",
          "type": "uint256"
        },
        {
          "indexed": false,
          "internalType": "uint256",
          "name": "check_closed",
          "type": "uint256"
        }
      ],
      "name": "checkTimesUpdated",
      "type": "event"
    },
    {
      "anonymous": false,
      "inputs": [
        {
          "indexed": false,
          "internalType": "uint256",
          "name": "pledge_pot",
          "type": "uint256"
        },
        {
          "indexed": false,
          "internalType": "uint256",
          "name": "reward_pot",
          "type": "uint256"
        },
        {
          "indexed": false,
          "internalType": "uint256",
          "name": "penalty_pot",
          "type": "uint256"
        }
      ],
      "name": "moneyPotUpdated",
      "type": "event"
    },
    {
      "anonymous": false,
      "inputs": [
        {
          "indexed": false,
          "internalType": "address",
          "name": "nominee_address",
          "type": "address"
        }
      ],
      "name": "nomineeSet",
      "type": "event"
    },
    {
      "anonymous": false,
      "inputs": [
        {
          "indexed": false,
          "internalType": "uint256",
          "name": "days_missed",
          "type": "uint256"
        },
        {
          "indexed": false,
          "internalType": "uint256",
          "name": "penalty_amount",
          "type": "uint256"
        }
      ],
      "name": "penaltyApplied",
      "type": "event"
    },
    {
      "anonymous": false,
      "inputs": [
        {
          "indexed": false,
          "internalType": "bytes32[]",
          "name": "commitments",
          "type": "bytes32[]"
        },
        {
          "indexed": false,
          "internalType": "uint256",
          "name": "pledge_pot",
          "type": "uint256"
        },
        {
          "indexed": false,
          "internalType": "uint256",
          "name": "promise_deadline",
          "type": "uint256"
        },
        {
          "indexed": false,
          "internalType": "uint256",
          "name": "checks_left",
          "type": "uint256"
        }
      ],
      "name": "promiseSet",
      "type": "event"
    },
    {
      "anonymous": false,
      "inputs": [
        {
          "indexed": false,
          "internalType": "uint256",
          "name": "checks_left",
          "type": "uint256"
        },
        {
          "indexed": false,
          "internalType": "uint256",
          "name": "last_checked",
          "type": "uint256"
        }
      ],
      "name": "submissionAccepted",
      "type": "event"
    },
    {
      "inputs": [],
      "name": "contract_creation",
      "outputs": [
        {
          "internalType": "uint256",
          "name": "",
          "type": "uint256"
        }
      ],
      "stateMutability": "view",
      "type": "function",
      "constant": true
    },
    {
      "inputs": [],
      "name": "isPromiseActive",
      "outputs": [
        {
          "internalType": "bool",
          "name": "",
          "type": "bool"
        }
      ],
      "stateMutability": "view",
      "type": "function",
      "constant": true
    },
    {
      "inputs": [],
      "name": "owner",
      "outputs": [
        {
          "internalType": "address",
          "name": "",
          "type": "address"
        }
      ],
      "stateMutability": "view",
      "type": "function",
      "constant": true
    },
    {
      "inputs": [],
      "name": "promise_deadline",
      "outputs": [
        {
          "internalType": "uint256",
          "name": "",
          "type": "uint256"
        }
      ],
      "stateMutability": "view",
      "type": "function",
      "constant": true
    },
    {
      "inputs": [
        {
          "internalType": "address",
          "name": "requester",
          "type": "address"
        }
      ],
      "name": "initialize",
      "outputs": [],
      "stateMutability": "nonpayable",
      "type": "function"
    },
    {
      "inputs": [
        {
          "internalType": "address",
          "name": "nominee",
          "type": "address"
        }
      ],
      "name": "setNominee",
      "outputs": [],
      "stateMutability": "nonpayable",
      "type": "function"
    },
    {
      "inputs": [
        {
          "internalType": "bytes32[]",
          "name": "my_commitments",
          "type": "bytes32[]"
        },
        {
          "internalType": "uint256",
          "name": "my_wager",
          "type": "uint256"
        },
        {
          "internalType": "uint256",
          "name": "commitment_checks",
          "type": "uint256"
        },
        {
          "internalType": "uint256",
          "name": "my_deadline",
          "type": "uint256"
        }
      ],
      "name": "activatePromise",
      "outputs": [],
      "stateMutability": "payable",
      "type": "function",
      "payable": true
    },
    {
      "inputs": [
        {
          "internalType": "bool",
          "name": "commitments_fulfiled",
          "type": "bool"
        },
        {
          "internalType": "uint256",
          "name": "time_submitted",
          "type": "uint256"
        }
      ],
      "name": "checkCommitments",
      "outputs": [],
      "stateMutability": "nonpayable",
      "type": "function"
    },
    {
      "inputs": [],
      "name": "cashOut",
      "outputs": [],
      "stateMutability": "payable",
      "type": "function",
      "payable": true
    },
    {
      "inputs": [],
      "name": "getPromiseDetails",
      "outputs": [
        {
          "internalType": "uint256",
          "name": "",
          "type": "uint256"
        },
        {
          "internalType": "uint256",
          "name": "",
          "type": "uint256"
        },
        {
          "internalType": "uint256",
          "name": "",
          "type": "uint256"
        },
        {
          "internalType": "uint256",
          "name": "",
          "type": "uint256"
        },
        {
          "internalType": "address",
          "name": "",
          "type": "address"
        },
        {
          "internalType": "bytes32[]",
          "name": "",
          "type": "bytes32[]"
        },
        {
          "internalType": "bool",
          "name": "",
          "type": "bool"
        }
      ],
      "stateMutability": "view",
      "type": "function",
      "constant": true
    },
    {
      "inputs": [],
      "name": "getPotsDetails",
      "outputs": [
        {
          "internalType": "uint256",
          "name": "",
          "type": "uint256"
        },
        {
          "internalType": "uint256",
          "name": "",
          "type": "uint256"
        },
        {
          "internalType": "uint256",
          "name": "",
          "type": "uint256"
        }
      ],
      "stateMutability": "view",
      "type": "function",
      "constant": true
    }
  ],
  "bytecode": "0x60a06040524260809081525034801561001757600080fd5b506080516124506100336000396000610c1801526124506000f3fe60806040526004361061009c5760003560e01c80638da5cb5b116100645780638da5cb5b14610146578063bb17986314610171578063bf9b1a3b1461019a578063c4d66de8146101c5578063c678c683146101ee578063fc6fe3f21461021b5761009c565b80633fd7989d146100a15780634a23a252146100cc57806368ce403c146100e8578063793cd71e146101115780637950d27b1461011b575b600080fd5b3480156100ad57600080fd5b506100b661024c565b6040516100c39190611470565b60405180910390f35b6100e660048036038101906100e19190611664565b61025f565b005b3480156100f457600080fd5b5061010f600480360381019061010a9190611745565b61068a565b005b610119610907565b005b34801561012757600080fd5b50610130610c16565b60405161013d9190611781565b60405180910390f35b34801561015257600080fd5b5061015b610c3a565b60405161016891906117ab565b60405180910390f35b34801561017d57600080fd5b50610198600480360381019061019391906117f2565b610c60565b005b3480156101a657600080fd5b506101af610e9e565b6040516101bc9190611781565b60405180910390f35b3480156101d157600080fd5b506101ec60048036038101906101e79190611745565b610ea4565b005b3480156101fa57600080fd5b50610203610fca565b60405161021293929190611832565b60405180910390f35b34801561022757600080fd5b50610230611073565b6040516102439796959493929190611927565b60405180910390f35b600c60149054906101000a900460ff1681565b600c60009054906101000a900473ffffffffffffffffffffffffffffffffffffffff1673ffffffffffffffffffffffffffffffffffffffff163373ffffffffffffffffffffffffffffffffffffffff16146102ef576040517f08c379a00000000000000000000000000000000000000000000000000000000081526004016102e6906119fa565b60405180910390fd5b600c60149054906101000a900460ff161561033f576040517f08c379a000000000000000000000000000000000000000000000000000000000815260040161033690611a66565b60405180910390fd5b600073ffffffffffffffffffffffffffffffffffffffff16600b60009054906101000a900473ffffffffffffffffffffffffffffffffffffffff1673ffffffffffffffffffffffffffffffffffffffff1614156103d1576040517f08c379a00000000000000000000000000000000000000000000000000000000081526004016103c890611ad2565b60405180910390fd5b60008451141580156103e557506003845111155b610424576040517f08c379a000000000000000000000000000000000000000000000000000000000815260040161041b90611b3e565b60405180910390fd5b60008311610467576040517f08c379a000000000000000000000000000000000000000000000000000000000815260040161045e90611baa565b60405180910390fd5b81836104739190611bf9565b3410156104b5576040517f08c379a00000000000000000000000000000000000000000000000000000000081526004016104ac90611c9f565b60405180910390fd5b42811180156104d257506202a30042826104cf9190611cbf565b10155b610511576040517f08c379a000000000000000000000000000000000000000000000000000000000815260040161050890611d3f565b60405180910390fd5b601d6201518042836105239190611cbf565b61052d9190611d8e565b1061056d576040517f08c379a000000000000000000000000000000000000000000000000000000000815260040161056490611e0b565b60405180910390fd5b6000620151808361057e9190611bf9565b426105899190611e2b565b905081811080156105a857506201518081836105a59190611cbf565b11155b6105e7576040517f08c379a00000000000000000000000000000000000000000000000000000000081526004016105de90611ecd565b60405180910390fd5b346002819055506001600c60146101000a81548160ff0219169083151502179055508160068190555082600a819055508360038190555084600190805190602001906106349291906113eb565b5061063e426111b9565b507fc3975e3768a404a343d70812bf9e235414e03ee98871983472724911eb90d56b6001600254600654600a5460405161067b9493929190611fc3565b60405180910390a15050505050565b600c60009054906101000a900473ffffffffffffffffffffffffffffffffffffffff1673ffffffffffffffffffffffffffffffffffffffff163373ffffffffffffffffffffffffffffffffffffffff161461071a576040517f08c379a0000000000000000000000000000000000000000000000000000000008152600401610711906119fa565b60405180910390fd5b600c60149054906101000a900460ff161561076a576040517f08c379a000000000000000000000000000000000000000000000000000000000815260040161076190611a66565b60405180910390fd5b600c60009054906101000a900473ffffffffffffffffffffffffffffffffffffffff1673ffffffffffffffffffffffffffffffffffffffff168173ffffffffffffffffffffffffffffffffffffffff1614156107fb576040517f08c379a00000000000000000000000000000000000000000000000000000000081526004016107f29061205b565b60405180910390fd5b3073ffffffffffffffffffffffffffffffffffffffff168173ffffffffffffffffffffffffffffffffffffffff16141561086a576040517f08c379a0000000000000000000000000000000000000000000000000000000008152600401610861906120c7565b60405180910390fd5b80600b60006101000a81548173ffffffffffffffffffffffffffffffffffffffff021916908373ffffffffffffffffffffffffffffffffffffffff1602179055507fb88df51b1712cee129d0555fda518b83ad2578c422e30c4a72e9a538bbc79e08600b60009054906101000a900473ffffffffffffffffffffffffffffffffffffffff166040516108fc91906117ab565b60405180910390a150565b600c60009054906101000a900473ffffffffffffffffffffffffffffffffffffffff1673ffffffffffffffffffffffffffffffffffffffff163373ffffffffffffffffffffffffffffffffffffffff1614610997576040517f08c379a000000000000000000000000000000000000000000000000000000000815260040161098e906119fa565b60405180910390fd5b600c60149054906101000a900460ff166109e6576040517f08c379a00000000000000000000000000000000000000000000000000000000081526004016109dd90612133565b60405180910390fd5b600654421015610a2b576040517f08c379a0000000000000000000000000000000000000000000000000000000008152600401610a229061219f565b60405180910390fd5b6000600a5414610a4157610a40600a5461121f565b5b6000600254600454610a539190611e2b565b9050600060048190555060006002819055506000600554905060006005819055506000600c60146101000a81548160ff0219169083151502179055506000806000841115610b2a57600c60009054906101000a900473ffffffffffffffffffffffffffffffffffffffff1673ffffffffffffffffffffffffffffffffffffffff1684604051610ae1906121f0565b60006040518083038185875af1925050503d8060008114610b1e576040519150601f19603f3d011682016040523d82523d6000602084013e610b23565b606091505b5050809250505b6000831115610bc257600b60009054906101000a900473ffffffffffffffffffffffffffffffffffffffff1673ffffffffffffffffffffffffffffffffffffffff1683604051610b79906121f0565b60006040518083038185875af1925050503d8060008114610bb6576040519150601f19603f3d011682016040523d82523d6000602084013e610bbb565b606091505b5050809150505b7fd59e89ffa5794c13701f518a868f86d8771a559d21352ac104ba7599a043047584848484600c60149054906101000a900460ff16604051610c08959493929190612205565b60405180910390a150505050565b7f000000000000000000000000000000000000000000000000000000000000000081565b600c60009054906101000a900473ffffffffffffffffffffffffffffffffffffffff1681565b600c60009054906101000a900473ffffffffffffffffffffffffffffffffffffffff1673ffffffffffffffffffffffffffffffffffffffff163373ffffffffffffffffffffffffffffffffffffffff1614610cf0576040517f08c379a0000000000000000000000000000000000000000000000000000000008152600401610ce7906119fa565b60405180910390fd5b600c60149054906101000a900460ff16610d3f576040517f08c379a0000000000000000000000000000000000000000000000000000000008152600401610d3690612133565b60405180910390fd5b8060095481118015610d5357506007548110155b610d92576040517f08c379a0000000000000000000000000000000000000000000000000000000008152600401610d89906122a4565b60405180910390fd5b6006544210610dd6576040517f08c379a0000000000000000000000000000000000000000000000000000000008152600401610dcd90612310565b60405180910390fd5b60006007548310158015610deb575060085483105b15610e085762015180600754610e019190611e2b565b9050610e69565b60006201518060085485610e1c9190611cbf565b610e269190611d8e565b90506000811115610e3b57610e3a8161121f565b5b8062015180610e4a9190611bf9565b62015180600754610e5b9190611e2b565b610e659190611e2b565b9150505b610e72816111b9565b8015610e835750610e82846112b9565b5b610e9057610e8f612330565b5b610e98611367565b50505050565b60065481565b600060019054906101000a900460ff16610ecc5760008054906101000a900460ff1615610ed5565b610ed46113c7565b5b610f14576040517f08c379a0000000000000000000000000000000000000000000000000000000008152600401610f0b906123d1565b60405180910390fd5b60008060019054906101000a900460ff161590508015610f64576001600060016101000a81548160ff02191690831515021790555060016000806101000a81548160ff0219169083151502179055505b81600c60006101000a81548173ffffffffffffffffffffffffffffffffffffffff021916908373ffffffffffffffffffffffffffffffffffffffff1602179055508015610fc65760008060016101000a81548160ff0219169083151502179055505b5050565b6000806000600c60009054906101000a900473ffffffffffffffffffffffffffffffffffffffff1673ffffffffffffffffffffffffffffffffffffffff163373ffffffffffffffffffffffffffffffffffffffff161461105f576040517f08c379a0000000000000000000000000000000000000000000000000000000008152600401611056906119fa565b60405180910390fd5b600254600454600554925092509250909192565b600080600080600060606000600c60009054906101000a900473ffffffffffffffffffffffffffffffffffffffff1673ffffffffffffffffffffffffffffffffffffffff163373ffffffffffffffffffffffffffffffffffffffff161461110f576040517f08c379a0000000000000000000000000000000000000000000000000000000008152600401611106906119fa565b60405180910390fd5b600754600854600a54600654600b60009054906101000a900473ffffffffffffffffffffffffffffffffffffffff166001600c60149054906101000a900460ff168180548060200260200160405190810160405280929190818152602001828054801561119b57602002820191906000526020600020905b815481526020019060010190808311611187575b50505050509150965096509650965096509650965090919293949596565b600081600781905550620151806007546111d39190611e2b565b6008819055507f2ad8420892a3dfad96f5b056d350788a25b14093a9ee91b29c27ea0702cc484960075460085460405161120e9291906123f1565b60405180910390a160019050919050565b60006003548261122f9190611bf9565b905080600560008282546112439190611e2b565b92505081905550806002600082825461125c9190611cbf565b9250508190555081600a60008282546112759190611cbf565b925050819055507fe117a3a3e9cc29b8ed78583634a25388f1a89c136fd76d49d56bf064155f210c82826040516112ad9291906123f1565b60405180910390a15050565b6000600354600260008282546112cf9190611cbf565b92505081905550600115158215151461130157600354600560008282546112f69190611e2b565b92505081905561131c565b600354600460008282546113159190611e2b565b9250508190555b507f63b3f12bdb6442648b6e97b39e01ff08e8f48eef3f4c31c745e2c56a0513225c60025460045460055460405161135693929190611832565b60405180910390a160019050919050565b6001600a600082825461137a9190611cbf565b92505081905550426009819055507fbfc5805d1baf044fcc091ebeeda7d5cff74584d620aedb20bf1bf03fec328852600a546009546040516113bd9291906123f1565b60405180910390a1565b60006113d2306113d8565b15905090565b600080823b905060008111915050919050565b828054828255906000526020600020908101928215611427579160200282015b8281111561142657825182559160200191906001019061140b565b5b5090506114349190611438565b5090565b5b80821115611451576000816000905550600101611439565b5090565b60008115159050919050565b61146a81611455565b82525050565b60006020820190506114856000830184611461565b92915050565b6000604051905090565b600080fd5b600080fd5b600080fd5b6000601f19601f8301169050919050565b7f4e487b7100000000000000000000000000000000000000000000000000000000600052604160045260246000fd5b6114ed826114a4565b810181811067ffffffffffffffff8211171561150c5761150b6114b5565b5b80604052505050565b600061151f61148b565b905061152b82826114e4565b919050565b600067ffffffffffffffff82111561154b5761154a6114b5565b5b602082029050602081019050919050565b600080fd5b6000819050919050565b61157481611561565b811461157f57600080fd5b50565b6000813590506115918161156b565b92915050565b60006115aa6115a584611530565b611515565b905080838252602082019050602084028301858111156115cd576115cc61155c565b5b835b818110156115f657806115e28882611582565b8452602084019350506020810190506115cf565b5050509392505050565b600082601f8301126116155761161461149f565b5b8135611625848260208601611597565b91505092915050565b6000819050919050565b6116418161162e565b811461164c57600080fd5b50565b60008135905061165e81611638565b92915050565b6000806000806080858703121561167e5761167d611495565b5b600085013567ffffffffffffffff81111561169c5761169b61149a565b5b6116a887828801611600565b94505060206116b98782880161164f565b93505060406116ca8782880161164f565b92505060606116db8782880161164f565b91505092959194509250565b600073ffffffffffffffffffffffffffffffffffffffff82169050919050565b6000611712826116e7565b9050919050565b61172281611707565b811461172d57600080fd5b50565b60008135905061173f81611719565b92915050565b60006020828403121561175b5761175a611495565b5b600061176984828501611730565b91505092915050565b61177b8161162e565b82525050565b60006020820190506117966000830184611772565b92915050565b6117a581611707565b82525050565b60006020820190506117c0600083018461179c565b92915050565b6117cf81611455565b81146117da57600080fd5b50565b6000813590506117ec816117c6565b92915050565b6000806040838503121561180957611808611495565b5b6000611817858286016117dd565b92505060206118288582860161164f565b9150509250929050565b60006060820190506118476000830186611772565b6118546020830185611772565b6118616040830184611772565b949350505050565b600081519050919050565b600082825260208201905092915050565b6000819050602082019050919050565b61189e81611561565b82525050565b60006118b08383611895565b60208301905092915050565b6000602082019050919050565b60006118d482611869565b6118de8185611874565b93506118e983611885565b8060005b8381101561191a57815161190188826118a4565b975061190c836118bc565b9250506001810190506118ed565b5085935050505092915050565b600060e08201905061193c600083018a611772565b6119496020830189611772565b6119566040830188611772565b6119636060830187611772565b611970608083018661179c565b81810360a083015261198281856118c9565b905061199160c0830184611461565b98975050505050505050565b600082825260208201905092915050565b7f6f776e6572206f6e6c7900000000000000000000000000000000000000000000600082015250565b60006119e4600a8361199d565b91506119ef826119ae565b602082019050919050565b60006020820190508181036000830152611a13816119d7565b9050919050565b7f70726f6d69736520697320616374697665000000000000000000000000000000600082015250565b6000611a5060118361199d565b9150611a5b82611a1a565b602082019050919050565b60006020820190508181036000830152611a7f81611a43565b9050919050565b7f6e6f6d696e6565206163636f756e742072657175697265640000000000000000600082015250565b6000611abc60188361199d565b9150611ac782611a86565b602082019050919050565b60006020820190508181036000830152611aeb81611aaf565b9050919050565b7f312d3320636f6d6d69746d656e7473206f6e6c79000000000000000000000000600082015250565b6000611b2860148361199d565b9150611b3382611af2565b602082019050919050565b60006020820190508181036000830152611b5781611b1b565b9050919050565b7f696e73756666696369656e742077616765720000000000000000000000000000600082015250565b6000611b9460128361199d565b9150611b9f82611b5e565b602082019050919050565b60006020820190508181036000830152611bc381611b87565b9050919050565b7f4e487b7100000000000000000000000000000000000000000000000000000000600052601160045260246000fd5b6000611c048261162e565b9150611c0f8361162e565b9250817fffffffffffffffffffffffffffffffffffffffffffffffffffffffffffffffff0483118215151615611c4857611c47611bca565b5b828202905092915050565b7f696e73756666696369656e7420706c6564676520616d6f756e74000000000000600082015250565b6000611c89601a8361199d565b9150611c9482611c53565b602082019050919050565b60006020820190508181036000830152611cb881611c7c565b9050919050565b6000611cca8261162e565b9150611cd58361162e565b925082821015611ce857611ce7611bca565b5b828203905092915050565b7f646561646c696e65203e31206461792061776179206f6e6c7900000000000000600082015250565b6000611d2960198361199d565b9150611d3482611cf3565b602082019050919050565b60006020820190508181036000830152611d5881611d1c565b9050919050565b7f4e487b7100000000000000000000000000000000000000000000000000000000600052601260045260246000fd5b6000611d998261162e565b9150611da48361162e565b925082611db457611db3611d5f565b5b828204905092915050565b7f646561646c696e65203c333020646179732061776179206f6e6c790000000000600082015250565b6000611df5601b8361199d565b9150611e0082611dbf565b602082019050919050565b60006020820190508181036000830152611e2481611de8565b9050919050565b6000611e368261162e565b9150611e418361162e565b9250827fffffffffffffffffffffffffffffffffffffffffffffffffffffffffffffffff03821115611e7657611e75611bca565b5b828201905092915050565b7f696e636f72726563742023206f6620636865636b730000000000000000000000600082015250565b6000611eb760158361199d565b9150611ec282611e81565b602082019050919050565b60006020820190508181036000830152611ee681611eaa565b9050919050565b600081549050919050565b60008190508160005260206000209050919050565b60008160001c9050919050565b6000819050919050565b6000611f37611f3283611f0d565b611f1a565b9050919050565b6000611f4a8254611f24565b9050919050565b6000600182019050919050565b6000611f6982611eed565b611f738185611874565b9350611f7e83611ef8565b8060005b83811015611fb657611f9382611f3e565b611f9d88826118a4565b9750611fa883611f51565b925050600181019050611f82565b5085935050505092915050565b60006080820190508181036000830152611fdd8187611f5e565b9050611fec6020830186611772565b611ff96040830185611772565b6120066060830184611772565b95945050505050565b7f63616e74206e6f6d696e617465206f776e6572206163636f756e740000000000600082015250565b6000612045601b8361199d565b91506120508261200f565b602082019050919050565b6000602082019050818103600083015261207481612038565b9050919050565b7f63616e74206e6f6d696e617465207468697320636f6e74726163740000000000600082015250565b60006120b1601b8361199d565b91506120bc8261207b565b602082019050919050565b600060208201905081810360008301526120e0816120a4565b9050919050565b7f70726f6d6973652069736e742061637469766500000000000000000000000000600082015250565b600061211d60138361199d565b9150612128826120e7565b602082019050919050565b6000602082019050818103600083015261214c81612110565b9050919050565b7f70726f6d697365206e6f74206578706972656400000000000000000000000000600082015250565b600061218960138361199d565b915061219482612153565b602082019050919050565b600060208201905081810360008301526121b88161217c565b9050919050565b600081905092915050565b50565b60006121da6000836121bf565b91506121e5826121ca565b600082019050919050565b60006121fb826121cd565b9150819050919050565b600060a08201905061221a6000830188611772565b6122276020830187611772565b6122346040830186611461565b6122416060830185611461565b61224e6080830184611461565b9695505050505050565b7f616c7265616479207375626d6974746564000000000000000000000000000000600082015250565b600061228e60118361199d565b915061229982612258565b602082019050919050565b600060208201905081810360008301526122bd81612281565b9050919050565b7f70726f6d69736520657870697265643b20636173686f7574206e6f7700000000600082015250565b60006122fa601c8361199d565b9150612305826122c4565b602082019050919050565b60006020820190508181036000830152612329816122ed565b9050919050565b7f4e487b7100000000000000000000000000000000000000000000000000000000600052600160045260246000fd5b7f496e697469616c697a61626c653a20636f6e747261637420697320616c72656160008201527f647920696e697469616c697a6564000000000000000000000000000000000000602082015250565b60006123bb602e8361199d565b91506123c68261235f565b604082019050919050565b600060208201905081810360008301526123ea816123ae565b9050919050565b60006040820190506124066000830185611772565b6124136020830184611772565b939250505056fea26469706673582212208c65bcd0344eb959c248c666de05f84e32a9b5ea19733808cb6428d3ed0004df64736f6c634300080b0033",
  "immutableReferences": {
    "407": [
      {
        "length": 32,
        "start": 3096
      }
    ]
  },
  "source": "// SPDX-License-Identifier: MIT\npragma solidity ^0.8.0;\nimport \"@openzeppelin/contracts-upgradeable/proxy/utils/Initializable.sol\";\n\ncontract AccountabilityChecker is Initializable {\n    uint256 public immutable contract_creation = block.timestamp;\n\n    bytes32[] private commitments;\n    uint256 private pledge_pot;\n    uint256 private daily_wager;\n    uint256 private reward_pot;\n    uint256 private penalty_pot;\n\n    uint256 public promise_deadline;\n    uint256 private check_open;\n    uint256 private check_closed;\n    uint256 private last_checked;\n    uint256 private checks_left;\n\n    address private nominee_account;\n    address public owner;\n    bool public isPromiseActive;\n\n    event nomineeSet(address nominee_address);\n    event promiseSet(\n        bytes32[] commitments,\n        uint256 pledge_pot,\n        uint256 promise_deadline,\n        uint256 checks_left\n    );\n\n    event moneyPotUpdated(\n        uint256 pledge_pot,\n        uint256 reward_pot,\n        uint256 penalty_pot\n    );\n\n    event checkTimesUpdated(uint256 check_open, uint256 check_closed);\n\n    event submissionAccepted(uint256 checks_left, uint256 last_checked);\n\n    event penaltyApplied(uint256 days_missed, uint256 penalty_amount);\n\n    event cashOutSummary(\n        uint256 payout,\n        uint256 penalty,\n        bool sentToOwner,\n        bool sentToNominee,\n        bool isPromiseActive\n    );\n\n    modifier isOwner() {\n        require(msg.sender == owner, \"owner only\");\n        _;\n    }\n\n    modifier promiseActive() {\n        require(isPromiseActive, \"promise isnt active\");\n        _;\n    }\n\n    modifier promiseNotActive() {\n        require(!isPromiseActive, \"promise is active\");\n        _;\n    }\n\n    modifier promiseExpired() {\n        require(block.timestamp >= promise_deadline, \"promise not expired\");\n        _;\n    }\n\n    modifier promiseNotExpired() {\n        require(\n            (block.timestamp < promise_deadline),\n            \"promise expired; cashout now\"\n        );\n        _;\n    }\n\n    modifier notAlreadyChecked(uint256 time_given) {\n        require(\n            time_given > last_checked && time_given >= check_open,\n            \"already submitted\"\n        );\n        _;\n    }\n\n    function initialize(address requester) public initializer {\n        owner = requester;\n    }\n\n    function setNominee(address nominee) public isOwner promiseNotActive {\n        require(nominee != owner, \"cant nominate owner account\");\n        require(nominee != address(this), \"cant nominate this contract\");\n\n        nominee_account = nominee;\n\n        emit nomineeSet(nominee_account);\n    }\n\n    function activatePromise(\n        bytes32[] memory my_commitments,\n        uint256 my_wager,\n        uint256 commitment_checks,\n        uint256 my_deadline\n    ) public payable isOwner promiseNotActive {\n        require(nominee_account != address(0), \"nominee account required\");\n        require(\n            my_commitments.length != 0 && my_commitments.length <= 3,\n            \"1-3 commitments only\"\n        );\n        require(my_wager > 0, \"insufficient wager\");\n        require(\n            msg.value >= my_wager * commitment_checks,\n            \"insufficient pledge amount\"\n        );\n        require(\n            my_deadline > block.timestamp &&\n                my_deadline - block.timestamp >= 2 days,\n            \"deadline >1 day away only\"\n        );\n        require(\n            ((my_deadline - block.timestamp) / 1 days) < 29,\n            \"deadline <30 days away only\"\n        );\n        uint256 calculated_deadline = block.timestamp +\n            (commitment_checks * 1 days);\n        require(\n            calculated_deadline < my_deadline &&\n                ((my_deadline - calculated_deadline) <= 1 days),\n            \"incorrect # of checks\"\n        );\n\n        pledge_pot = msg.value;\n        isPromiseActive = true;\n        promise_deadline = my_deadline;\n\n        checks_left = commitment_checks;\n        daily_wager = my_wager;\n        commitments = my_commitments;\n\n        updateCheckTimes(block.timestamp);\n        emit promiseSet(commitments, pledge_pot, promise_deadline, checks_left);\n    }\n\n    function checkCommitments(bool commitments_fulfiled, uint256 time_submitted)\n        public\n        isOwner\n        promiseActive\n        notAlreadyChecked(time_submitted)\n        promiseNotExpired\n    {\n        uint256 new_time;\n        if (time_submitted >= check_open && time_submitted < check_closed) {\n            new_time = check_open + 1 days;\n        } else {\n            uint256 missed_days = (time_submitted - check_closed) / 1 days;\n            if (missed_days > 0) applyPenalty(missed_days);\n            new_time = check_open + 1 days + (1 days * missed_days);\n        }\n        assert(\n            updateCheckTimes(new_time) && updateMoneyPots(commitments_fulfiled)\n        );\n        acceptCommitmentSubmission();\n    }\n\n    function cashOut() public payable isOwner promiseActive promiseExpired {\n        if (checks_left != 0) applyPenalty(checks_left);\n\n        uint256 payout = reward_pot + pledge_pot;\n        reward_pot = 0;\n        pledge_pot = 0;\n\n        uint256 penalty = penalty_pot;\n        penalty_pot = 0;\n\n        isPromiseActive = false;\n        bool sentPayout;\n        bool sentPenalty;\n\n        if (payout > 0) (sentPayout, ) = payable(owner).call{value: payout}(\"\");\n        if (penalty > 0)\n            (sentPenalty, ) = payable(nominee_account).call{value: penalty}(\"\");\n\n        emit cashOutSummary(\n            payout,\n            penalty,\n            sentPayout,\n            sentPenalty,\n            isPromiseActive\n        );\n    }\n\n    function updateCheckTimes(uint256 new_time) internal returns (bool) {\n        check_open = new_time;\n        check_closed = check_open + 1 days;\n\n        emit checkTimesUpdated(check_open, check_closed);\n        return true;\n    }\n\n    function updateMoneyPots(bool result) internal returns (bool) {\n        pledge_pot -= daily_wager;\n        result == true ? reward_pot += daily_wager : penalty_pot += daily_wager;\n\n        emit moneyPotUpdated(pledge_pot, reward_pot, penalty_pot);\n        return true;\n    }\n\n    function acceptCommitmentSubmission() internal {\n        checks_left -= 1;\n        last_checked = block.timestamp;\n\n        emit submissionAccepted(checks_left, last_checked);\n    }\n\n    function applyPenalty(uint256 missed_days) internal {\n        uint256 penalty_amount = missed_days * daily_wager;\n\n        penalty_pot += penalty_amount;\n        pledge_pot -= penalty_amount;\n\n        checks_left -= missed_days;\n\n        emit penaltyApplied(missed_days, penalty_amount);\n    }\n\n    function getPromiseDetails()\n        public\n        view\n        isOwner\n        returns (\n            uint256,\n            uint256,\n            uint256,\n            uint256,\n            address,\n            bytes32[] memory,\n            bool\n        )\n    {\n        return (\n            check_open,\n            check_closed,\n            checks_left,\n            promise_deadline,\n            nominee_account,\n            commitments,\n            isPromiseActive\n        );\n    }\n\n    function getPotsDetails()\n        public\n        view\n        isOwner\n        returns (\n            uint256,\n            uint256,\n            uint256\n        )\n    {\n        return (pledge_pot, reward_pot, penalty_pot);\n    }\n}\n",
  "sourcePath": "/Users/michelles/Desktop/Projects/Blockchain Course/blockchain-developer-bootcamp-final-project/smartcontract/contracts/AccountabilityChecker.sol",
  "compiler": {
    "name": "solc",
    "version": "0.8.11+commit.d7f03943.Emscripten.clang"
  },
  "schemaVersion": "3.4.4",
  "updatedAt": "2022-01-26T01:58:27.445Z",
  "networkType": "ethereum",
  "devdoc": {
    "kind": "dev",
    "methods": {},
    "version": 1
  },
  "userdoc": {
    "kind": "user",
    "methods": {},
    "version": 1
  }
}